{
  "_format": "hh-sol-artifact-1",
  "contractName": "ForeverDataPayments",
  "sourceName": "contracts/ForeverDataPayments.sol",
  "abi": [
    {
      "inputs": [],
      "stateMutability": "nonpayable",
      "type": "constructor"
    },
    {
      "inputs": [
        {
          "internalType": "address",
          "name": "owner",
          "type": "address"
        }
      ],
      "name": "OwnableInvalidOwner",
      "type": "error"
    },
    {
      "inputs": [
        {
          "internalType": "address",
          "name": "account",
          "type": "address"
        }
      ],
      "name": "OwnableUnauthorizedAccount",
      "type": "error"
    },
    {
      "inputs": [],
      "name": "ReentrancyGuardReentrantCall",
      "type": "error"
    },
    {
      "anonymous": false,
      "inputs": [
        {
          "indexed": true,
          "internalType": "string",
          "name": "fileId",
          "type": "string"
        },
        {
          "indexed": false,
          "internalType": "uint256",
          "name": "amount",
          "type": "uint256"
        }
      ],
      "name": "BalanceWithdrawn",
      "type": "event"
    },
    {
      "anonymous": false,
      "inputs": [
        {
          "indexed": true,
          "internalType": "string",
          "name": "fileId",
          "type": "string"
        },
        {
          "indexed": true,
          "internalType": "address",
          "name": "payer",
          "type": "address"
        },
        {
          "indexed": false,
          "internalType": "uint256",
          "name": "amount",
          "type": "uint256"
        }
      ],
      "name": "FilePayment",
      "type": "event"
    },
    {
      "anonymous": false,
      "inputs": [
        {
          "indexed": true,
          "internalType": "address",
          "name": "previousOwner",
          "type": "address"
        },
        {
          "indexed": true,
          "internalType": "address",
          "name": "newOwner",
          "type": "address"
        }
      ],
      "name": "OwnershipTransferred",
      "type": "event"
    },
    {
      "anonymous": false,
      "inputs": [
        {
          "indexed": true,
          "internalType": "string",
          "name": "fileId",
          "type": "string"
        },
        {
          "indexed": false,
          "internalType": "uint256",
          "name": "amount",
          "type": "uint256"
        }
      ],
      "name": "RefreshDeduction",
      "type": "event"
    },
    {
      "inputs": [
        {
          "internalType": "string",
          "name": "fileId",
          "type": "string"
        },
        {
          "internalType": "uint256",
          "name": "amount",
          "type": "uint256"
        }
      ],
      "name": "deductRefreshCost",
      "outputs": [],
      "stateMutability": "nonpayable",
      "type": "function"
    },
    {
      "inputs": [
        {
          "internalType": "string",
          "name": "fileId",
          "type": "string"
        }
      ],
      "name": "depositForFile",
      "outputs": [],
      "stateMutability": "payable",
      "type": "function"
    },
    {
      "inputs": [
        {
          "internalType": "string",
          "name": "",
          "type": "string"
        }
      ],
      "name": "fileBalances",
      "outputs": [
        {
          "internalType": "uint256",
          "name": "",
          "type": "uint256"
        }
      ],
      "stateMutability": "view",
      "type": "function"
    },
    {
      "inputs": [
        {
          "internalType": "string",
          "name": "",
          "type": "string"
        }
      ],
      "name": "fileOwners",
      "outputs": [
        {
          "internalType": "address",
          "name": "",
          "type": "address"
        }
      ],
      "stateMutability": "view",
      "type": "function"
    },
    {
      "inputs": [
        {
          "internalType": "string",
          "name": "fileId",
          "type": "string"
        }
      ],
      "name": "getFileBalance",
      "outputs": [
        {
          "internalType": "uint256",
          "name": "",
          "type": "uint256"
        }
      ],
      "stateMutability": "view",
      "type": "function"
    },
    {
      "inputs": [
        {
          "internalType": "string",
          "name": "fileId",
          "type": "string"
        }
      ],
      "name": "getFileOwner",
      "outputs": [
        {
          "internalType": "address",
          "name": "",
          "type": "address"
        }
      ],
      "stateMutability": "view",
      "type": "function"
    },
    {
      "inputs": [],
      "name": "owner",
      "outputs": [
        {
          "internalType": "address",
          "name": "",
          "type": "address"
        }
      ],
      "stateMutability": "view",
      "type": "function"
    },
    {
      "inputs": [],
      "name": "renounceOwnership",
      "outputs": [],
      "stateMutability": "nonpayable",
      "type": "function"
    },
    {
      "inputs": [
        {
          "internalType": "address",
          "name": "newOwner",
          "type": "address"
        }
      ],
      "name": "transferOwnership",
      "outputs": [],
      "stateMutability": "nonpayable",
      "type": "function"
    },
    {
      "inputs": [
        {
          "internalType": "string",
          "name": "fileId",
          "type": "string"
        },
        {
          "internalType": "uint256",
          "name": "amount",
          "type": "uint256"
        }
      ],
      "name": "withdrawFileBalance",
      "outputs": [],
      "stateMutability": "nonpayable",
      "type": "function"
    }
  ],
  "bytecode": "0x608060405234801561001057600080fd5b50338061003757604051631e4fbdf760e01b81526000600482015260240160405180910390fd5b6100408161004a565b506001805561009a565b600080546001600160a01b038381166001600160a01b0319831681178455604051919092169283917f8be0079c531659141344cd1fd0a4f28419497f9722a3daafe3b4186f6b6457e09190a35050565b6109be806100a96000396000f3fe6080604052600436106100915760003560e01c80638da5cb5b116100595780638da5cb5b14610170578063b830facb1461018e578063bc202fc1146101cf578063c593fef5146101ef578063f2fde38b1461020257600080fd5b80631a3f826e1461009657806338fa8f58146100b8578063590ad5ad146100f5578063715018a6146101155780637f3abace1461012a575b600080fd5b3480156100a257600080fd5b506100b66100b1366004610865565b610222565b005b3480156100c457600080fd5b506100d86100d33660046108aa565b61031c565b6040516001600160a01b0390911681526020015b60405180910390f35b34801561010157600080fd5b506100b6610110366004610865565b61034d565b34801561012157600080fd5b506100b6610549565b34801561013657600080fd5b506101626101453660046108aa565b805160208183018101805160028252928201919093012091525481565b6040519081526020016100ec565b34801561017c57600080fd5b506000546001600160a01b03166100d8565b34801561019a57600080fd5b506100d86101a93660046108aa565b80516020818301810180516003825292820191909301209152546001600160a01b031681565b3480156101db57600080fd5b506101626101ea3660046108aa565b61055d565b6100b66101fd3660046108aa565b610585565b34801561020e57600080fd5b506100b661021d3660046108e7565b6106dd565b61022a61071b565b8060028360405161023b9190610917565b908152602001604051809103902054101561029d5760405162461bcd60e51b815260206004820152601960248201527f496e73756666696369656e742066696c652062616c616e63650000000000000060448201526064015b60405180910390fd5b806002836040516102ae9190610917565b908152602001604051809103902060008282546102cb919061095c565b90915550506040516102de908390610917565b604051908190038120828252907f118c62fb01287bd0cd7e34239349d41755fca2bd321cdd1ed122c03e42461d239060200160405180910390a25050565b600060038260405161032e9190610917565b908152604051908190036020019020546001600160a01b031692915050565b610355610748565b6003826040516103659190610917565b90815260405190819003602001902054336001600160a01b03909116146103ce5760405162461bcd60e51b815260206004820152601c60248201527f4f6e6c792066696c65206f776e65722063616e207769746864726177000000006044820152606401610294565b806002836040516103df9190610917565b90815260200160405180910390205410156104335760405162461bcd60e51b8152602060048201526014602482015273496e73756666696369656e742062616c616e636560601b6044820152606401610294565b806002836040516104449190610917565b90815260200160405180910390206000828254610461919061095c565b9091555050604051600090339083908381818185875af1925050503d80600081146104a8576040519150601f19603f3d011682016040523d82523d6000602084013e6104ad565b606091505b50509050806104f35760405162461bcd60e51b815260206004820152601260248201527108cc2d2d8cac840e8de40e6cadcc8408aa8960731b6044820152606401610294565b826040516105019190610917565b604051908190038120838252907fc99e25ee5db9308597be1f5b6f87822fe7d4ac590e142b05de9884ca6a7d3df29060200160405180910390a25061054560018055565b5050565b61055161071b565b61055b6000610772565b565b600060028260405161056f9190610917565b9081526020016040518091039020549050919050565b600034116105e35760405162461bcd60e51b815260206004820152602560248201527f5061796d656e7420616d6f756e74206d75737420626520677265617465722074604482015264068616e20360dc1b6064820152608401610294565b60006001600160a01b03166003826040516105fe9190610917565b908152604051908190036020019020546001600160a01b03160361065d573360038260405161062d9190610917565b90815260405190819003602001902080546001600160a01b03929092166001600160a01b03199092169190911790555b3460028260405161066e9190610917565b9081526020016040518091039020600082825461068b9190610975565b909155505060405133906106a0908390610917565b604051908190038120348252907f99e9fc5abfe6919c65820fa97c9f7b0fab88e4ff06a64bb191bc86ead30bc2669060200160405180910390a350565b6106e561071b565b6001600160a01b03811661070f57604051631e4fbdf760e01b815260006004820152602401610294565b61071881610772565b50565b6000546001600160a01b0316331461055b5760405163118cdaa760e01b8152336004820152602401610294565b60026001540361076b57604051633ee5aeb560e01b815260040160405180910390fd5b6002600155565b600080546001600160a01b038381166001600160a01b0319831681178455604051919092169283917f8be0079c531659141344cd1fd0a4f28419497f9722a3daafe3b4186f6b6457e09190a35050565b634e487b7160e01b600052604160045260246000fd5b600082601f8301126107e957600080fd5b813567ffffffffffffffff80821115610804576108046107c2565b604051601f8301601f19908116603f0116810190828211818310171561082c5761082c6107c2565b8160405283815286602085880101111561084557600080fd5b836020870160208301376000602085830101528094505050505092915050565b6000806040838503121561087857600080fd5b823567ffffffffffffffff81111561088f57600080fd5b61089b858286016107d8565b95602094909401359450505050565b6000602082840312156108bc57600080fd5b813567ffffffffffffffff8111156108d357600080fd5b6108df848285016107d8565b949350505050565b6000602082840312156108f957600080fd5b81356001600160a01b038116811461091057600080fd5b9392505050565b6000825160005b81811015610938576020818601810151858301520161091e565b506000920191825250919050565b634e487b7160e01b600052601160045260246000fd5b8181038181111561096f5761096f610946565b92915050565b8082018082111561096f5761096f61094656fea264697066735822122080273b1eae07ce53bcba7c1d29affe025fbffed5deb4ae0c302b3505aa5f915a64736f6c63430008140033",
  "linkReferences": {},
  "deployedLinkReferences": {}
}